S01100004C45445F52474230312E73726563A3
S11300000C9434000C943E000C943E000C943E007E
S11300100C943E000C943E000C943E000C943E0064
S11300200C943E000C943E000C943E000C943E0054
S11300300C943E000C943E000C943E000C943E0044
S11300400C943E000C943E000C943E000C943E0034
S11300500C943E000C943E000C943E000C943E0024
S11300600C943E000C943E0011241FBECFEFD8E048
S1130070DEBFCDBF0E9440000C9464000C940000CD
S11300808FEF8AB92FEE97EF8BEF2BB93FEF43ED4C
S113009050E3315040405040E1F700C000009BB9AC
S11300A03FEF43ED50E3315040405040E1F700C092
S11300B000008BB93FEF43ED50E3315040405040D6
S10F00C0E1F700C00000E1CFF894FFCF8E
S9030000FC
